S02B00002F55736572732F6A65737365627261792F53696D706C696369747953747564696F2F76365F776F723C
S31508000000D0070020B9090008ED040208ED0402082B
S315080000107F270208ED040208ED040208ED04020831
S31508000020ED040208ED040208ED040208C5E9020819
S31508000030ED040208ED04020869E90208130F030833
S31508000040ED040208ED040208ED040208ED040208B6
S31508000050ED040208ED040208ED040208ED040208A6
S31508000060ED040208ED040208ED040208659500088F
S31508000070AD430208ED040208ED040208ED04020887
S31508000080ED040208ED040208ED040208ED04020876
S31508000090ED04020865110008ED040208ED040208E3
S315080000A0ED040208A50D0008850D0008ED040208F8
S315080000B0ED04020861E8010835F1010829E10208A2
S315080000C025E10208A9E801083FE102082DE1020836
S315080000D005F1010831E1020875F10108DDF10108B1
S315080000E0ED040208ED040208ED040208ED04020816
S315080000F0E91B0208ED040208ED040208ED040208F3
S31508000100ED040208ED040208ED040208ED040208F5
S31508000110ED040208ED040208ED040208ED040208E5
S31508000120ED040208ED040208ED040208ED040208D5
S31508000130ED040208ED040208ED040208ED040208C5
S31508000140ED040208F9870008ED04020839230308BC
S31508000150E9D30108ED04020813E1020819E10208CF
S31508000160ED040208ED040208ED040208ED04020895
S31508000180F0B5114A114C124E00F00105E3695F07FC
S3150800019013D40DB9334213D103EA00078F4207D1AE
S315080001A00B4A1A40002A0CBF00206FF00100F0BD70
S315080001B0013AEBD16FF00200F9E74FF0FF30F6E7AE
S315080001C06FF00100F3E700BF809698000000035027
S315080001D0020001000B4B70B5D96911F480310DD1BD
S315080001E001244FF48072084E084DF46020462C64B2
S315080001F01A61FFF7C5FF3464EC6070BD6FF001004B
S31508000200FBE700BF00000350001003500020035016
S315080002104FF4803238B50E4B0E4C9A66E56941F6B6
S31508000220713315400122E3630B4B0021DA60022388
S31508000230606121202361FFF7A3FF10B92120FFF792
S315080002409FFF0122054BDA600DB10023E36338BD39
S315080002500090005000000350001003500020035087
S3150800026070B5134C6061E3695B071ED40E4656F8F9
S31508000270043B8D18A361AE420BD104230021212033
S315080002802361FFF77DFF58B9BDE870402120FFF7CD
S3150800029077BF08210846FFF773FF10B104232361CF
S315080002A070BD56F8043BA361E5E74FF0FF30F7E76A
S315080002B0000003502DE9F84315464FF48032184BD9
S315080002C089469A6603F51C33DF690646174041F6E8
S315080002D07132DA63012203F58053DFF84C80DA6065
S315080002E055B9284601220F4BDA601FB10022A3F543
S315080002F00053DA63BDE8F88306F5005404EA0804F7
S31508000300A41BAC4228BF2C46494622463046FFF776
S31508000310A7FF0028E6D12644A1442D1BE0E700BF2D
S31508000320009000500020035000E0FFFF000000008E
S3150800033000000000000000000000000000000000AF
S315080003400348044B834202D0034B03B11847704756
S31508000350244700202447002000000000064B0749D8
S31508000360C91A891048BF0131491003D0044B0BB193
S3150800037001481847704700BF24470020244700203B
S315080003800000000010B5064C237843B9FFF7D8FFE4
S31508000390044B13B10448AFF300800123237010BD4A
S315080003A04C3F002000000000388F030808B5054BB5
S315080003B01BB105490548AFF30080BDE80840FFF7C3
S315080003C0CDBF00BF0000000010110020388F0308C1
S315080003D0A3F5803A704700BF174B002B08BF134B95
S315080003E09D46FFF7F5FF00218B460F461348144A32
S315080003F0121A24F084F90E4B002B00D098470D4BA7
S31508000400002B00D098470020002104000D000D485D
S31508000410002802D00C48AFF3008009F03BFE20000C
S31508000420290022F0CAF909F0CBFB00BF000008003A
S315080004300000000000000000D0070020D0070020C0
S3150800044060420020000000000000000073B504466A
S315080004500CF04CFF00283FD10126224B2677A361DA
S31508000460A36843F48013A36022F0ECF9A368A08084
S315080004701B030CD4B0F5FA7F09D931F048FE0546BE
S31508000480314630462FF00EFD284631F03BFE204619
S315080004900CF054FF08BBE06808B30FF029FC25F000
S315080004A073FE0CF075F826F0EFFE25F09BFB002294
S315080004B00121042025F059FE002301A88DF80430F7
S315080004C00DF006F9032104200EF01AFE0A200BF09F
S315080004D0FFFD20461FF0AAFF002002B070BD0248AB
S315080004E0DBE700BF05040300FA46002038B50546D9
S315080004F031F016FEAC688CB931F00DFE4FF0FF31C5
S31508000500686830F079FF0028F2D0063006288EBFDA
S315080005100124054B1C5C44F0004403E00023AB6057
S3150800052031F0F9FD204638BDA826030870B5044603
S31508000530084D094E2046FFF7D9FF2B6803F038030C
S31508000540202B02D1284623F0DFFE082130461FF073
S3150800055075FFEFE74D3F00204C1100202DE9F047CD
S315080005601C4607460E46154630F06BFDDFF86890C8
S31508000570D9F80030834207D123462A463146384601
S31508000580BDE8F0470AF0D2B8DFF85080D8F8000086
S3150800059030F088FF0B4B48461F600B4B04211E604A
S315080005A00A4B1D600A4B1C6005230A4C23601FF08A
S315080005B045FF4FF0FF31D8F8000030F01DFF2068E6
S315080005C0BDE8F08768110020641100206011002042
S315080005D05C110020581100204C1100202811002021
S315080005E010B50748074C1FF040FF07481FF03DFFAE
S315080005F0236823B1206830F096FE0023236010BDDF
S315080006004011002030110020341100202DE9F0415E
S31508000610054608242846FFF769FF0443E607F9D587
S3150800062018F0D2FA0546002835D1394A137803F06E
S31508000630FD0343F004031370364E374FDFF8F4809A
S31508000640E3062BD50024354E18F0CCFAFFF7C8FF81
S315080006507068346030F037FF01226FF05F012C4B71
S3150800066074601A702E4B187819705978002D48D076
S315080006700321597099789A70DA780622ADB2DA7041
S315080006809D809C71264823F03FFE30F0DAFCBDE8D9
S31508000690F04130F0D8BC44F01004CDE760070FD520
S315080006A020493368D8F80020386809680AF03EF807
S315080006B01D4B24F0040418601C4B186830F0CAFE61
S315080006C018F0A4F821070ED518F0C2F858B1144846
S315080006D02CF0CFFF0028B3D14FF48031144824F012
S315080006E008041FF0ABFE2DF01AF808B92207A7D4A4
S315080006F00A48FFF7FBFE0443A2D518F087F808243A
S31508000700E2E75D7099789A70D978DA70BAE700BF2F
S31508000710514000205C110020681100204C11002077
S315080007204D3F002064110020581100202811002098
S31508000730341100206011002038B5002101200B4A31
S3150800074030F009FE0A4C2060236853B1094830F09E
S3150800075052FD094B18601D682DB9206830F0B3FEAC
S315080007602560012038BD0020FCE700BF6827030884
S3150800077028110020782703082C11002010B5134CE7
S315080007801348236830F037FD20602368E3B1114B26
S31508000790114A124912481FF077FE044690B9114BC8
S315080007A0114A124912481FF06FFE044650B9114B00
S315080007B0114A124912481FF067FE044610B911483B
S315080007C00AF01AF8204610BD0124FBE73011002074
S315080007D088270308102803080D06000800280308C0
S315080007E04C110020DC2703085B040208CC27030809
S315080007F040110020A82703082D050008982703089C
S31508000800341100205D0500084FF4807101481FF07F
S3150800081015BE00BF40110020022101481FF00EBE80
S315080008204C11002008B52FF0ADF9B0B90E4B187869
S3150800083010F0010010D030F004FC0C4B1B6883420A
S315080008400DD00B4B4FF0FF31186830F011FD063014
S31508000850062806D8074B185C08BD1420FCE720209C
S31508000860FAE70120F8E700BF514000204C110020AC
S315080008702C110020A826030808B5084B1B78DB07AF
S315080008800BD530F0DEFB064B1B68834205D0054BC3
S315080008901868BDE8084030F010BD08BD514000207A
S315080008A04C1100202C110020024A137843F0010352
S315080008B0137070475140002008B50A4B1A78120782
S315080008C00DD41A7812F0060F07D11A78012142F0D2
S315080008D0020205481A701FF0B1FD002008BD02206B
S315080008E0FCE700BF514000204C11002008B5FFF777
S315080008F023FF0449044818F02FF9BDE8084018F00A
S315080009005DB900BF3428030804290308F8B50E4664
S315080009100546D0B1C9B10E4B0E4F1968386801F0BB
S315080009200FFC044678B9062332460B49386801F0AD
S31508000930D5FC044638B901232A460849386801F027
S31508000940CDFC00B12C702046F8BD2124FBE700BF82
S3150800095038440020584400202C0004003C000400C1
S3150800096008B5034831F0F4FBBDE8084023F0D4BCD1
S31508000970E82B0308014831F0EBBB00BFE82B03085E
S3150800098040B1054A1378012B04D8037001330020BF
S315080009901370704701207047524000200348044AEC
S315080009A00449121A92101FF0A2BD00BF8001000868
S315080009B0400300086042002008B5154B83F30A88F7
S315080009C000F030F8FFF7EAFF124B13498B4212D3B7
S315080009D00020124B12498B4218D3FFF7FDFC18680A
S315080009E050F82240586840F82240013298688242FE
S315080009F0F5D30C33EAE70022F8E71C6844F822002E
S31508000A0001325C68A242F8D30833E4E70022F8E72B
S31508000A1000000020408F03084C8F03084C8F030802
S31508000A204C8F03084FF48041124B134A70B59A60F5
S31508000A30D3F88820114D42F47002C3F88820104A72
S31508000A4005F5005491664FF0FF3222660D4A62663C
S31508000A500222C3F8D020BFF34F8FBFF36F8F4FF436
S31508000A604036002004F08AFB0020E66004F06AFBAA
S31508000A702E6170BD00ED00E0000000080080004413
S31508000A8000900050F7FF3700014B1860704700BF11
S31508000A9024440020054B1860054B1B6F03F0070321
S31508000AA0032B01D12DF0B0BD704700BF2C440020A8
S31508000AB000800050002307B50193054B1B6830F0F2
S31508000AC05AFE019B002BFCD003B05DF804FB00BF67
S31508000AD030440020EFF305830F2B84BF034A9B5C49
S31508000AE04FF0E023D3F80C3D704700BFF0E300E079
S31508000AF008B500216FF0040021F078F82FF01EFEEB
S31508000B004FF47A7300F2E730B0FBF3F0084B094A6A
S31508000B1018604FF0FF33B3FBF0F30A3B136031F074
S31508000B20C7FB054B18600120BDE808402DF056BFED
S31508000B30A41800209C180020A018002070B5D0B179
S31508000B40C9B10E4E431E013913F8014F2046325DD6
S31508000B5002F00302012A11F8012F08BF04F1200050
S31508000B60B55C05F00305012D08BF2032801A01D1B6
S31508000B70002CE9D170BD0120FCE700BF77480308C7
S31508000B8007B508201FF060FD0222064B6846CDE92E
S31508000B9000231FF00FFD082003B05DF804EB1FF0DB
S31508000BA05EBD00BF006A1810002307B529480193E7
S31508000BB031F0CEFA4FF44073012204216846ADF8AD
S31508000BC000301FF058FD0122234B0520C3F84424AA
S31508000BD001A931F0B8FA002839D1204BD3F8F02012
S31508000BE042F00102C3F8F020D3F8FC2042F08072EC
S31508000BF0C3F8FC201A4AA3F55D431A60019B194AFB
S31508000C0003F5D52303F2FC43B3FBF2F3164A013B83
S31508000C1013610223C2F8F0304FF48073C2F804332C
S31508000C204FF06043114AC3F8B02F114AC3F8802E1B
S31508000C30D3F8002E42F48072C3F8002EFF2283F800
S31508000C402020D3F8002E22F48072C3F8002E03B0B9
S31508000C505DF804FBE82B030800D0035000ED00E024
S31508000C60FF030040F8590D00000004E055CEACC55E
S31508000C70090001004FF06043D3F8802E30B5D20743
S31508000C8015D501240B4D8440D5F8FC2042F080721E
S31508000C90C5F8FC20D3F8002E2243C3F8002E53F8DB
S31508000CA02020002AF0D003F82010002030BD1120A3
S31508000CB0FCE700BF00ED00E0F8B504460127124D39
S31508000CC00CB314F001000BD0002024F0010405EB4E
S31508000CD0C0021668002EF3D05168C0B2B047EFE7DD
S31508000CE02246013020284FEA520201D0D307F8D510
S31508000CF007FA00F20F2824EA0204E8D9421E05EB97
S31508000D00C2021038E5E7F8BD841E002008B50C4875
S31508000D1031F01EFA192004F023FA28B1192004F03C
S31508000D202DFA192004F00EFA1A2004F019FA28B13F
S31508000D301A2004F023FA1A2004F004FA002008BD49
S31508000D40E82B030848B10122437801789A403023FA
S31508000D505943034B00205A5070472220704700BF62
S31508000D6040D0035048B10122437801789A40302395
S31508000D705943034B00205A5070472220704700BF42
S31508000D8040E0035008B503F069FB054B00F0553009
S31508000D9020F05020C3F82004BDE80840FFF78CBFB8
S31508000DA000E0035008B503F059FB054B00F0AA30E4
S31508000DB020F0A020C3F82004BDE80840FFF77CBF58
S31508000DC000E003502DE9F04F9A46564B85B01B7844
S31508000DD006460F461546DDF83C909DF844B0DDF80A
S31508000DE05080002B00F09780072A00F296800E9B11
S31508000DF0002B00F09280B9F1000F00F08E80129B54
S31508000E00B3F5006F00F38980012803D1109B002BEE
S31508000E1000F08380444B03EB05131B7B002B7ED02D
S31508000E20424C10220021684623F069FC04EB451465
S31508000E301022A7BB3946204623F061FC43F2100373
S31508000E406380BBF1000F03D1E37843F00303E3703B
S31508000E50364A0E9B02EB451CCCE90193129B6901AD
S31508000E60581E9DF84C30C0F30A0003F003039B0696
S31508000E7043EA001E53582E48012E00EA03004EEAA4
S31508000E800003CDF800A0535017D0B8F1000F2ED1AB
S31508000E909CF8023068F304138CF8023027E000212E
S31508000EA0204623F02CFC4FF444736380BBF1000FFB
S31508000EB0CED1E37843F03003C9E713230CF1100EC3
S31508000EC0CCF80C309CE80F008EE80F006FF0030199
S31508000ED0DCF81C20109B61F39F02012FCCF81C2024
S31508000EE0CCF8143003D1CCF81890CCF8043000278D
S31508000EF00D4A290102EB051342F80180159A284686
S31508000F005A60694622469F605E7303F0A3F9384625
S31508000F1005B0BDE8F08F0748FAE70748F8E707483D
S31508000F20F6E700BFF440002074200020741F00205C
S31508000F300F80FFF3028000F0018000F0078000F0C8
S31508000F4038B5124B05461B78DBB1E0B131F0E8F84D
S31508000F500F4A00231146147B54B92B6001251A0148
S31508000F6001EB03131D738C5031F0D5F8204638BDBC
S31508000F700133082B02F11002EDD131F0CCF8054807
S31508000F80F5E70548F3E70548F1E700BFF440002018
S31508000F9074200020048000F0028000F0018000F038
S31508000FA038B531F0BDF8002305460B4A147B6CB9F9
S31508000FB00133082B02F11002F8D103F0F7F8074BBA
S31508000FC028461C7031F0A7F8204603E0284631F081
S31508000FD0A2F8034838BD00BF74200020F440002062
S31508000FE0058000F00D4B10B51B78044693B1072811
S31508000FF012D831F095F80A4B03EB04131A7B2AB181
S3150800100000241C7331F087F8204610BD31F083F8B0
S315080010100448FAE70448F8E70448F6E7F4400020ED
S3150800102074200020068000F0028000F0018000F0A5
S31508001030154B13B51868002301908DF8043031F06C
S315080010406FF8124B1C7824B131F065F8104802B0DD
S3150800105010BD01221A7031F05EF80E4B01A81C7300
S315080010601C7783F82C4083F83C4083F84C4083F87F
S315080010705C4083F86C4083F87C4008238DF8073081
S3150800108003F0B8F82046E2E7AE290308F44000204A
S31508001090038000F074200020F8B50D4D2D7885B139
S315080010A0072810DC0B4D060105EB0014277B67B1FA
S315080010B0AB510025069BA560636003F0CBF8284674
S315080010C0F8BD0548FCE70548FAE70548F8E700BF14
S315080010D0F440002074200020028000F0018000F017
S315080010E0078000F00A4A08B512785AB107280BD8C3
S315080010F0084A02EB00131B7B43B1002103F06CF88E
S31508001100002008BD0448FCE70448FAE70448F8E765
S31508001110F440002074200020028000F0018000F0D6
S31508001120078000F00A4A08B512785AB107280BD882
S31508001130084A02EB00131B7B43B1012103F04CF86C
S31508001140002008BD0448FCE70448FAE70448F8E725
S31508001150F440002074200020028000F0018000F096
S31508001160078000F0184B2DE9F0411F6D5B6D1F409D
S3150800117000D5FEE701260025144CDFF858803742D3
S3150800118018D02368C8F85060A3B1A1682846013171
S315080011906268A1609847637B012B0BD150B90C4B51
S315080011A003EB45131A7B60F341021A731A7F60F347
S315080011B041021A770135082D4FEA460604F1100454
S315080011C0DDD1BDE8F08100BF000004507420002086
S315080011D0741F0020002004502DE9F04F14460546E0
S315080011E00E469B46C36B87B001225B6902A96068FD
S315080011F09847EB6B01225B6903A93046984702A81A
S315080012001FF0C9FE074648B10023A37563754FF062
S31508001210FF33A360002007B0BDE8F08F03A81FF0D6
S31508001220C7FE0123A375237E04EBC303DE611F8477
S315080012306368B3420ED1206003A81FF0DBFE4FF0AF
S31508001240FF332075A360237D043B022B26D8002399
S31508001250A375DFE723681A1A53425341A37503A8F7
S315080012601FF0C8FE237D834218BFA77503A81FF089
S31508001270A3FE074602A81FF09FFE874218BF002359
S3150800128003A818BFA3751FF09FFE074602A81FF004
S315080012909BFE87421CBF0023A375D4E703A81FF053
S315080012A08BFE80B1EB6B022230465B6904A9984736
S315080012B004A81FF090FE0346207D032839D8DFE8EE
S315080012C000F03838040903A8F3E7CC22237E04EBA0
S315080012D0C3031A8401F0B8FA109B187003A8277E76
S315080012E01FF05EFE04EBC70787F82200237E03A8DB
S315080012F004EBC303B3F8209093F822701FF05CFE4A
S31508001300804603A81FF060FE8246B8F1000F15D08C
S31508001310EB6B022230465B6904A9984704A81FF0C4
S315080013201FFE6075637D6BB90023A3754FF0000837
S3150800133038E0227E04EBC2021384CBE703A81FF031
S31508001340FAFDEEE794F81680B8F1000FEED0B9F181
S31508001350000F09D1DFB10123E375637E002B4FD15E
S31508001360012F42D1677614E06B6C06EB0A025942EC
S3150800137086EA020008421CBF0021A175591E0A40D0
S315080013809B1A9945D0D8A37D002BE3D1CEE7E37D00
S3150800139043B94FF000084B465246314628461FF0DF
S315080013A038FBA060A27D12B123694B4423611A4918
S315080013B0237E097899422AD901332376BBF1000F97
S315080013C027D032B3E37D23B3B8F1000F21D1032F21
S315080013D01FD0A1684B1C1CD0109B224600932846A0
S315080013E00123FFF7F9FEA07513E095F8343063B9C9
S315080013F0EB6A0133CFD1032FCDD10123A376C8E7FA
S31508001400012FCFD0032FC4D1F7E79846C3E70023AF
S31508001410A375A07DFFE600BFD42903082DE9F04F88
S315080014200E46984600238BB004464FF0FF3110460F
S3150800143017468DF8133001F0F1F9B6F5801F3BD346
S31508001440B21C53D1E56A6B1C57D12046616A1FF05E
S3150800145026FA0546B31C18BF0123DFF8109101933D
S31508001460636A626C0293236805A902FB053AE36B7B
S3150800147005225B695046984705A81FF027FE1FF00E
S315080014804AFE50461FF052FE4FF0000B82460146B8
S315080014904B1C05D0636C81EA0A025B42134232D0C8
S315080014A0294620461FF0FBF9029BAB424DD0BBF103
S315080014B0000F4DD10546D3E7314605AA04F10800C9
S315080014C01FF0B7FC0146481C10D0384601F0A6F9B3
S315080014D00122394620460DF113031FF0ECFA28B114
S315080014E09DF8133088F80030002003E0237C002B99
S315080014F0A8D12D200BB0BDE8F08F2368ED1A636CD8
S31508001500B5FBF3F5A6E7484601F088F90DF1130394
S3150800151049462046019A1FF0CEFA034690B1B21CFE
S3150800152003D0D9F80020B2420CD19DF813200393BA
S315080015300D4B88F8002049461A68384623F0EAF821
S31508001540039B9B46D9F80810A2E7BBF1000FD0D041
S31508001550B6F5801FC8D2314698F800307A6804F18B
S31508001560080001F089F8BFE7D0290308682700209A
S315080015702DE9F3410446174698460E46194D816AE9
S31508001580E36A8B422AD04B1C18E0284601F046F93C
S315080015900122294620460DF107031FF08CFA30B1C7
S315080015A04346294620469DF80720B847B0B1A968A2
S315080015B04A1C05D0012E0AD0E36A9942E5D10DE00E
S315080015C0696820461FF0F8F9012E0146D8D16B68E4
S315080015D081EA0302636C5B421A42D1D002B0BDE8CD
S315080015E0F08100BF3C2700202DE9F0474FF0FF337C
S315080015F04FF6FF720025044600F10806C0E90923E4
S315080016008AB0C3620562056330460F461FF0E2FBE7
S3150800161020461FF0C4F828BB204639461FF08FF92C
S3150800162020461FF0BCF828BB5E200AB0BDE8F0874C
S31508001630E26B2368606CD2F814C000FB0530052203
S3150800164005A9E04705A81FF041FD012840F0838061
S31508001650294620461FF044F9421C294620461FF019
S31508001660BDF80135E3699D42E2D320461FF097F89D
S315080016700028D1D020461FF0C2F84FF6FF72636AE1
S31508001680934200F0B080E26B676C2068694607FBFE
S31508001690030055690522A84768461FF0EEFC626AF2
S315080016A02368606C514D00FB02301FF03FFD4FF080
S315080016B0FF33A062E3622A466FF00101204605ABBC
S315080016C0FFF7ACFE002850D1AD6829462046E562F2
S315080016D01FF041F8206320B92046E16A1FF06CF933
S315080016E0E062294620461FF067F90546A36A9D422F
S315080016F03DD120461EF0EDFF00278046B946E36936
S31508001700994546D3B84563D92046616A1FF0C7F89C
S315080017100026054604F1400ABE4212D3626C2368CD
S31508001720694602FB0539E36B05225B69484698471B
S3150800173068461FF0A2FC534602464946E06B1FF076
S31508001740F7FC294620461FF0AAF80136B04505469B
S31508001750E2D1642069E71FF0E3FC002881D029461E
S3150800176020461FF0BDF8024677E7A56AADE7294689
S3150800177020461EF0F0FF236B2946034407462363E1
S3150800178020461FF019F90546002FAFD1C4E90B070B
S31508001790ACE7636C2568052203FB0955E36B05A9CD
S315080017A05B692846984705A81FF090FC1FF0B3FC14
S315080017B058B128461FF0BAFC014620461EF0CBFF5A
S315080017C0636C143B984208BF013709F1010996E793
S315080017D030461FF0FFFA002320461946044AFFF751
S315080017E0C7FE002021E767201FE700BF94270020D7
S315080017F0A50A02082DE9F041036B9046826B07683B
S315080018009A4288BF8363426C436A90B002FB0377AF
S31508001810C36B0E46052201A95B69044638469847FC
S3150800182001A81FF053FC01280146307057D0656C9B
S31508001830E26B2368606AD2F814C005FB0030052203
S3150800184006A9E04706A81FF041FC01284FF000054D
S3150800185023D0D4E90A3201219342CDE90B458DF80C
S3150800186034800E958DF83C102AD1194620461FF073
S31508001870A3F8236B626C14339B1AE06223630C9BF8
S3150800188053B99DF83C303BB1626A616C2368E06BE2
S3150800189001FB02311FF0D2FB0C9DE36B05225B694D
S315080018A001A93846984701A81FF010FC3070284651
S315080018B0236BA26B9A4288BFA36310B0BDE8F08180
S315080018C0237C33B91C490BAA04F1080000F022FF57
S315080018D0D5E72046194A0BABFFF74AFECFE7237C2C
S315080018E023BB2246164904F1080000F013FF616A7B
S315080018F020461EF0F5FF616A421C20461EF06EFF68
S31508001900054620B9236B626C1344143B23632046B7
S31508001910A16A1FF051F82368A062C01A636CB0FB75
S31508001920F3F0606220461FF08AF8B6E700232046E7
S31508001930044AFFF71DFEDAE78D2000080920000893
S315080019403F0B0208DB0A020873B50D46D11E4A4250
S315080019501C461B7E4A419A4226D129682368994229
S3150800196022D3636899421FD8114E0DF107033246F8
S31508001970FFF754FDC0B972686B689A4214D19DF896
S315080019800730DA1E53425341227E93420CD16369D3
S3150800199001336361D4E90323934205D22968A26817
S315080019A042F8231001332361012002B070BD00BF45
S315080019B0942700202DE9F04F9A468BB09DF85030B9
S315080019C0DFF850B10293DBF81030804653450D46D8
S315080019D01646C0F09980D146DBF804300193B9F178
S315080019E0000F00F08D80D8F83C3001225B6907A90A
S315080019F00198984707A81FF0DBFADBF800309842F1
S31508001A0040F0858007A81FF0DFFA0428074614D19E
S31508001A1007A81FF0E0FA019B029A04463B44002AF5
S31508001A203FD1864212D91446361A404601991EF00D
S31508001A30C3FFA9EB04090190D1E7D8F83C3002228C
S31508001A405B69019808A9984708A8E2E7841B5445EA
S31508001A5028BF5446032C03EB0607AAEB040A4FEAF1
S31508001A6094021CD9D8F83C30294638465B69984711
S31508001A7024F0030304F003061F441D44002ED4D0AB
S31508001A80D8F83C3001225B6908A93846984732469F
S31508001A90284608A9354422F03DFE0026C5E7264615
S31508001AA0ECE7074600F00302039203442A1804925F
S31508001AB00593049BDD1B059BD81B039B9F420FD1F7
S31508001AC0002FB2D0D8F83C30012208A95B699847A4
S31508001AD03A46284608A922F0E8FD78B93D44A4E725
S31508001AE0D8F83C30012208A95B69984704222846A1
S31508001AF008A922F0DAFD08B9043FDAE74FF03609FB
S31508001B0048460BB0BDE8F08F4FF06309F8E74FF091
S31508001B106F09F5E7C02700202DE9F0410F46164664
S31508001B209846044688B060B390F83450FDB1012158
S31508001B301EF02AFE00210E9BCDE90511CDE90237DC
S31508001B409DF83C30CDF804808DF81C30237C049633
S31508001B508BB90D4901AA04F1080000F0DBFDDDE9A7
S31508001B600553E06B002E08BF1D461EF0F6FF2846FB
S31508001B7008B0BDE8F0812046044A01ABFFF7F8FC3F
S31508001B80EDE70546F3E700BF090B02084919000807
S31508001B902DE9F04F99B00F4609920A69416C0E93E8
S31508001BA01439D31DB3FBF1F3013302EBC302036B04
S31508001BB004469342C0F0BC810023DFF844940D9399
S31508001BC0E36A48461946079300F028FED7E9033624
S31508001BD004930E9B022B4ED1CC2E40F08A81099B92
S31508001BE0002B42D0394620461FF015F8656C079A37
S31508001BF06B1E13401490ED1AE36B01225B6916A95C
S31508001C007868984716A81FF0D7F900280CBF042350
S31508001C100823782E06933DD9012300254FF0080A9C
S31508001C2005933B6805990E98C9F80030C9F8106005
S31508001C301FF0E4F94FEA9A0310930023DDF81CB06D
S31508001C4089F814000B930F9308930C93616C4A1E42
S31508001C500BEA02028B1A002E38D05544AB4240D804
S31508001C60236B5B1A13442363ABE0049B1B68149332
S31508001C7008230693D0E7656C079A6B1E1340782EE7
S31508001C80A5EB030516D8FB7D7BB9099B002BB3D1C1
S31508001C9004230693331DAB4210D9A6B1082DBBD831
S31508001CA004250023AA460593BBE7099B002BA3D16D
S31508001CB00823EEE7099B002B9ED1D9E70025059559
S31508001CC04FF0040AADE704250596F9E75345C7D34F
S31508001CD0B0460BEB0A030393089B002B18BF03239C
S31508001CE013E0A3EB0A039E42B0460BEB0A0228BF99
S31508001CF098469E420392EFD90123D9F8102089F815
S31508001D001730964271D1C9F804B0089399F817307C
S31508001D10002B6CD099F818200899D31C09EBC3033B
S31508001D200132C3F804B0A3F80880997289F818201C
S31508001D30B8F1000F14D00E9B022B5BD10B9B7BB91D
S31508001D400F9B4344032B0BD9E36B01229B69039832
S31508001D5014A998470546002840F0EC8001230B9308
S31508001D60089B16A80193059B009399F814204346EF
S31508001D70396800F009FDE36B58469B69109A16A965
S31508001D809847051E0D9B18BF5B4652460D9359464C
S31508001D90434620461EF03DFE236B08F10302A3EBE3
S31508001DA00A0322F003029B1AC9F808002363002DD0
S31508001DB040F0C0800F9BDDF80CB04344A6EB080644
S31508001DC00F93594620461EF0F7FD00258346002E40
S31508001DD07FF43CAF8A4A3968936804F10800E362E5
S31508001DE052680E9B00F048FC84E002238DE7C9F890
S31508001DF004B09DE7099B002B30D1049BB8F1030F73
S31508001E0043440A9327D9DDE90301E36B4FEA9802B5
S31508001E109B6998470546002865D118F003025FD0EC
S31508001E20049B28F003052B440493039B1D444FF0A1
S31508001E30FF33049915A8159322F06CFCE36B28462A
S31508001E409B69012215A9984705460A9B0493002D0C
S31508001E5086D0039B99E74246039DE8E7039B0A93CE
S31508001E6007F120031193FB7D78689BB100233D7E23
S31508001E700C9AD9B28D4211D9119903F1010C31F896
S31508001E803310914226D9069907EBC303D8690A4449
S31508001E90104403E00C9B069A13441844E36B012292
S31508001EA05B6915A99847159B012213930C9B0A9801
S31508001EB004330C93E36B13A99B699847039B0A9A0F
S31508001EC043449B1A042B054607D978B913460433AD
S31508001ED00A93C8E76346521ACBE70A9B0393B6E709
S31508001EE00A9B04933CE70A9B0493B2E70A9B039375
S31508001EF0AFE77026304619B0BDE8F08F002657E0E8
S31508001F0004F108001EF066FF3346314620463D4A76
S31508001F10FFF72EFB3A69616CD31D1439B3FBF1F355
S31508001F20013302EBC302236B9342BFF449AE65E06B
S31508001F301C26DFE73D2D61D104F1080303932368CE
S31508001F40079A606CD61AB6FBF0F600FB06301FF04F
S31508001F50EDF8E16A824620461EF02EFDA26A82420C
S31508001F60D8D0626CD9F80830511E0B40216BE0625C
S31508001F70891A0B4423630D992368CB1AB3FBF2F82D
S31508001F804645BBD1079BB3EB0A0611D0E36BB208F3
S31508001F9051469B6998478346E36A079A3344E36246
S31508001FA0236B03989B1A534423631EF013FF5E4664
S31508001FB02368616CE06B01FB08311FF02CF82046A2
S31508001FC01EF0EDFB20461EF01AFC626A2368606C60
S31508001FD000FB02301FF0AAF8A06220461EF02FFD73
S31508001FE02063002E8CD03A69616CD31D1439B3FB7B
S31508001FF0F1F3013302EBC3029042A0D22E4679E7F1
S3150800200068270020A50A0208032A2DE9F341064697
S315080020100D4617461C4606D1237A012B23D00120EC
S3150800202002B0BDE8F081DFF86080096842460DF12C
S315080020300703FFF7F3F960600028EDD19DF8072044
S31508002040237A032AE8D0D8F804106A689142E3D1C3
S31508002050012B2969D4F80CC007D172690CEB01036E
S31508002060934202D92074207CDAE708316144E160A2
S315080020703B46012229463046FFF78AFD6060002864
S31508002080CAD00020CCE700BF942700202DE9F341F1
S31508002090089C032A1746266806D1237A012B24D0E2
S315080020A0012002B0BDE8F081DFF890803046424654
S315080020B00DF10703FFF7B2F960600028EDD1256836
S315080020C0D8F80400A96AD5F844C04840CCF1000302
S315080020D01840227AE1D1012A09D1E268D8F81030ED
S315080020E013447269934202D92074207CD9E7286880
S315080020F0EB6A1B1A081AB3FBFCF3B0FBFCF083422D
S315080021000BD1706CF36A421E1340326B121A1344D9
S31508002110284633631EF050FCE862D8F81020E368BE
S3150800212008321344E36001223B4604492068FFF75E
S315080021302FFD60600028B0D00020B2E79427002069
S315080021402DE9F0410025634B0E46D3F8008004467E
S315080021501D6018B921252846BDE8F08190F834702D
S3150800216007B30A6803689A4240F0AA804A68436837
S315080021709A4240F0A5808A6883689A4240F0A08017
S31508002180CA68C3689A4240F09B800A6943699A42C2
S3150800219040F096808A69C36B9A4240F091804B69F9
S315080021A08361D8E768223946856B22F0A8FAD6E912
S315080021B00212336804F1080023607368A56363603C
S315080021C0336963617369A3611EF016FEB36904F18E
S315080021D04000E3639B68984720B9676C17B163684A
S315080021E0B3FBF7F794F84330E761002BB2D000232E
S315080021F0656C2366002D6BD0002F69D02368B3FB6E
S31508002200F5F205FB1233002B5CD16768B7FBF5F6D0
S3150800221005FB1676002E55D120461EF08CFAA369CA
S31508002220043303449F424FD340F634726369CC3B70
S3150800223093424BD8B5F5805F4AD3032120461EF05A
S31508002240A3FAD4E90001E36B1B6898470546E36BDC
S315080022500220DB6898472DB184F83460E06B1EF0E5
S315080022607CFC78E741462046FFF7BEF96428054618
S3150800227004D141462046FFF7B7F90546636C143B7F
S31508002280D5B9226A204602FB03F61EF054FAA36962
S31508002290043303449E4203D284F834505A25DDE7BA
S315080022A00123D4E900010C4A84F834301368013359
S315080022B013601EF03BFED1E7002384F83430CDE7E7
S315080022C05D2548E7592546E75A2544E75F2542E74D
S315080022D05B2540E7F8200020F42000202DE9FF4187
S315080022E00C4616461F46054680B390F834307BB335
S315080022F0B1F5801F2ED2DFF8608001211EF044FA66
S315080023002146424628460DF10F03FFF787F8044693
S3150800231070B99DF80F30012B11D1D8F81030BB4297
S3150800232012D10246009031462846FFF743FB044681
S31508002330E86B1EF012FC204604B0BDE8F081022BC3
S3150800234014BF2D246024F3E76324F1E72124F2E780
S315080023501124F0E72924EEE7C02700202DE9F043F1
S3150800236085B00C4617461E460546DDF8308098B3FC
S3150800237090F8343093B3B1F5801F31D2DFF864900A
S3150800238001211EF001FA21464A4628460DF10F039F
S31508002390FFF744F8044688B99DF80F30012B14D18D
S315080023A0D9F8102006EB08039A4213D30090434647
S315080023B0324639462846FFF7FDFA0446E86B1EF012
S315080023C0CCFB204605B0BDE8F083022B14BF2D24B4
S315080023D06024F3E76324F1E72124F2E71124F0E708
S315080023E02924EEE7C02700202DE9F3411F460023E4
S315080023F00C46164605463B6050B390F834304BB34E
S31508002400B1F5801F28D2DFF8548001211EF0BCF9EF
S315080024102146424628460DF10703FEF7FFFF04460C
S31508002420A0B99DF80730032B10D0022B0AD101233F
S31508002430336004233B60E86B1EF08FFB204602B036
S31508002440BDE8F081D8F810303060F3E72D24F2E7C4
S315080024502124F3E71124F1E72924EFE7C027002018
S3150800246073B5044641691EF04BF9626E236B02444C
S3150800247093422CBF00220122834294BF00231B1AD9
S31508002480207C84F85020636584F85800A8B100239E
S315080024900B4E1A461946204600961EF089FC002364
S315080024A005461A461946204600961EF08AFCE36839
S315080024B02844984294BF0020C01AE06502B070BD57
S315080024C0FFFF0F002DE9F3471E4643690446B34252
S315080024D0884617469DF828904FD300258DF8075053
S315080024E0204661691EF00CF9D4F830A082450AD25C
S315080024F0236AB5EB430F06D2002220460DF10701E9
S31508002500FFF778F9B8B39DF80730012B05D10022FB
S3150800251020460DF10701FFF76DF9B9F1030F06D053
S31508002520314620461EF0ECF8256B854227D3154D1B
S315080025304FF0FF31284600F071F94B462946002234
S315080025402046C5E90376C5F80080FFF721FB236E10
S31508002550054663B12046FFF783FF94F8503013B958
S3150800256094F858301BB1236E04F15000984728465A
S3150800257002B0BDE8F0870135B2E76225F7E71C250A
S31508002580F5E700BF942700202DE9FF410F46904646
S315080025901E46054698B390F8343093B3B1F5801FBC
S315080025A031D21A4C02211EF0EFF822463946284647
S315080025B00DF10F03FEF732FF024678B101234246BA
S315080025C00093394633462846FFF77CFF0446E86BF6
S315080025D01EF0C3FA204604B0BDE8F0819DF80F301E
S315080025E0012BEBD12169B142E8D10093414633462C
S315080025F02846FFF7DFF904460028DFD1E7E721245C
S31508002600E8E71124E6E72924E4E700BFC02700200D
S3150800261030B50C46054685B028B390F8343023B358
S31508002620B1F5801F23D202211EF0AEF80DF10F037B
S31508002630214628460F4AFEF7F1FE034688B99DF85B
S315080026400F20032A0DD0032221460092024628466F
S31508002650FFF738FF0446E86B1EF07FFA204605B000
S3150800266030BD2D24F7E72124F8E71124F6E72924BD
S31508002670F4E700BFC02700202DE9F043466886B37B
S31508002680056898464FF0000CA946AE4655F83C40FA
S315080026900CF1010CC4F31307013401D0B94217D069
S315080026A066450EF1080EF1D12F46002403E0A64236
S315080026B007F1080712D055F8343001340133F6D142
S315080026C0C1F3130141EA0851C7E90012BDE8F083D6
S315080026D041EA0851CEE90012BDE8F083B8F1030FCC
S315080026E003D101230372BDE8F083002303E09E4271
S315080026F009F10809F5D055F833400133C4F30754F6
S31508002700032CF4D1C1F3130343EA0853C9E9003291
S31508002710BDE8F0832DE9F0410646406882B0C0B1B5
S315080027200F4690460024336853F8345003EBC4032D
S31508002730C5F30752C5F31301013504F1010406D0A8
S315080027405B683046CDF80080B84710B1706884429F
S31508002750E9D302B0BDE8F081024B1968024B18684C
S31508002760FFF7EEBC384400205844002008B52FF087
S31508002770CEFC014B186008BDEC270020014B1868F9
S315080027802FF0C0BCEC27002073B504462248012A66
S3150800279000EAC1119DF8185023F07C4007D9961E0F
S315080027A0012E28D9073303F07F03194308E09DF863
S315080027B01C300A43DB0603F0C053134343F0604161
S315080027C00023C4E900108DF80730B5B12022214650
S315080027D00DF107001EF0C6FC1A220DF10700211D97
S315080027E01EF0C0FC082063689DF8072043EA826350
S315080027F0636002B070BD1143E2E71B220DF10700CA
S3150800280021461EF0AFFC23689DF80720042043EA02
S31508002810C2632360EDE700BF80FFFF0738B5094BA9
S315080028200D461A680021044621F069FF00234FF07F
S31508002830FF322383C4E900252361A260E382A376DD
S3150800284038BD00BFD02903080138C0B205289ABF91
S31508002850014B185C01207047D52903082DE9F04182
S315080028600746154600240E46596888B0490A0129C4
S3150800287022464FEA510104F10104F8D8DC78997828
S3150800288024031B88C90201F4006104F480540C4334
S31508002890C3F30A035203234492B24FF000089C186C
S315080028A0274B6FEA0444039325F07843ED4302A9C6
S315080028B00DF107001B2202938DF807801EF052FCCB
S315080028C09DF80720029B02A943EAC2630DF107009F
S315080028D01B2225F07845049302958DF807801EF093
S315080028E041FC9DF80720029B6FEA144443EAC26341
S315080028F005934FF0FF330794069307A9BB69012296
S3150800290006F110009847BB6905A90446012206F19D
S3150800291008009847BB69404518BF044604A9012228
S31508002920301D98470122404518BF0446BB6930460A
S3150800293003A99847404508BF204608B0BDE8F0817E
S3150800294001009AB2044BD3F88420D206FBD4D3F8FC
S315080029508400C0F3811070470040005038B5174B0B
S315080029600546D3F828310C4603F00703013B052B2F
S3150800297020D8DFE803F003131B0F0B172BF01EFEFE
S31508002980052305B1286004B1236038BD2BF016FE77
S315080029900623F6E72BF05CFE0723F2E72BF04EFE44
S315080029A00323EEE72BF04AFE0423EAE72BF042FE68
S315080029B00223E6E700231846E3E700BF008000503D
S315080029C0002337B50193164B0546D3F820320C463B
S315080029D003F00703042B21D8DFE803F0030B1116D5
S315080029E01B0001230DB1019A2A6004B1236003B0CC
S315080029F030BD002101A8FFF7B1FF1223F2E72BF043
S31508002A0027FE07230190EDE72EF068FA0A230190C6
S31508002A10E8E72BF071FE09230190E3E70023E1E7DD
S31508002A200080005038B5104B0546D3F880300C4668
S31508002A3003F00303022B0BD0032B0DD0012B0FD170
S31508002A402BF0C2FD0E2305B1286004B1236038BD02
S31508002A502BF0FEFD0723F6E72BF0B0FD0623F2E781
S31508002A6000231846EFE700BF0080005038B5104B2A
S31508002A700546D3F800310C4603F00303022B0BD0AE
S31508002A80032B0DD0012B0FD12BF0D8FD032305B155
S31508002A90286004B1236038BD2BF02EFE0923F6E723
S31508002AA02BF0D2FD0823F2E701230020EFE700BF51
S31508002AB00080005038B5184B0546D3F820010C465F
S31508002AC000F00700062823D8DFE800F0040A0E16EF
S31508002AD0121A1E00012305B1286004B1236038BD0F
S31508002AE02BF06CFD0523F6E72BF0A8FD0323F2E790
S31508002AF02BF0AEFD0723EEE72BF09CFD0223EAE759
S31508002B002BF05CFD0623E6E72BF098FD0423E2E7AD
S31508002B1000231846DFE700BF0080005038B5104B89
S31508002B200546D3F840310C4603F00303022B0BD0BD
S31508002B30032B0DD0012B0FD12EF0D0F90A2305B1A6
S31508002B40286004B1236038BD2BF0D6FD0923F6E7CB
S31508002B502EF0C7F90C23F2E701230020EFE700BFA8
S31508002B6000800050002337B50193164B0546D3F86D
S31508002B7060320C4603F00703013B032B1FD8DFE83E
S31508002B8003F0020E1914002101A8FFF793FF102382
S31508002B900DB1019A2A6004B1236003B030BD00214B
S31508002BA001A8FFF7BBFF1123F2E72BF051FD07231E
S31508002BB00190EDE72BF03EFD02230190E8E70023A4
S31508002BC0E6E700BF00800050002337B50193164B97
S31508002BD00546D3F894320C4603F00703013B032B52
S31508002BE01FD8DFE803F0020E1914002101A8FFF729
S31508002BF061FF10230DB1019A2A6004B1236003B066
S31508002C0030BD002101A8FFF789FF1123F2E72BF059
S31508002C101FFD07230190EDE72BF00CFD0223019021
S31508002C20E8E70023E6E700BF0080005038B5104B00
S31508002C300546D3F860310C4603F00303022B0BD08C
S31508002C40032B0DD0012B0FD12EF048F90A2305B11D
S31508002C50286004B1236038BD2BF04EFD0923F6E742
S31508002C602EF03FF90C23F2E701230020EFE700BF1F
S31508002C70008000502E4B98424AD022D82D4B9842BD
S31508002C8040D014D82C4B984239D00AD82B4B9842AE
S31508002C9032D02B4B98422FD02A4B98422CD000206A
S31508002CA07047294B9842FAD1284B186F7047284B22
S31508002CB098422AD0274B9842F1D1244BD3F880006A
S31508002CC07047254B98422BD009D8244B984223D0DD
S31508002CD0234B9842E3D11D4BD3F88C007047214B08
S31508002CE0984221D003F5740303F510539842D6D1C0
S31508002CF0164BD3F898007047144B986D7047134BD2
S31508002D00586E7047114B586F7047104B986F704745
S31508002D100E4BD3F8840070470C4BD3F888007047E5
S31508002D200A4BD3F890007047084BD3F894007047C5
S31508002D300048E8010024F400C0CF6A0080841E0021
S31508002D4000093D0040420F00405DC6000080E00FCC
S31508002D50C0EA210180BA8C01007E560380D5430261
S31508002D60006CDC020090D00373B50D460021114BB0
S31508002D700191D3F88041064604F00304022C13D0CF
S31508002D80032C0CD0012C13D101A8FFF793FE1024B5
S31508002D900EB1019B336005B12C6002B070BD2BF0FB
S31508002DA057FC07240190F3E72BF044FC0190EFE76A
S31508002DB00C46EDE70080005038B5104B0546D3F8B1
S31508002DC040320C4603F00303022B0BD0032B0DD025
S31508002DD0012B0FD12EF082F80A2305B1286004B121
S31508002DE0236038BD2BF088FC0923F6E72EF079F826
S31508002DF00C23F2E701230020EFE700BF0080005014
S31508002E0038B5144B0546D3F800020C4600F0070007
S31508002E1004281BD8DFE800F003090D11150001236B
S31508002E2005B1286004B1236038BD2EF057F80A238F
S31508002E30F6E72BF061FC0923F2E72EF052F80C2393
S31508002E40EEE72BF0E1FB0F23800AE9E7002318469B
S31508002E50E6E700BF0080005038B5144B0546D3F8A6
S31508002E6008020C4600F0070004281BD8DFE800F02B
S31508002E7003090D111500012305B1286004B123606B
S31508002E8038BD2EF02BF80A23F6E72BF035FC09237C
S31508002E90F2E72EF026F80C23EEE72BF0B5FB0F230E
S31508002EA0800AE9E700231846E6E700BF00800050DD
S31508002EB0B0F5207F1FD009D8B0F5007F15D003D80C
S31508002EC068B1B0F5C07F0AD000200CE0B0F5607F8D
S31508002ED0FAD10B4BD3F88000C0F3011003E0084B7E
S31508002EE0186FC0F3033001307047054BD3F89000D4
S31508002EF0C0F30460F7E7024B186FC0F38020F2E7CF
S31508002F000080005002464FF48030104B10B598668A
S31508002F100020FFF7CDFF504341F671320C4BDC69B8
S31508002F20DA635A6804F4803422F4401259B909491C
S31508002F30884294BF00200120000502435A600CB164
S31508002F400022DA6310BD0449F2E700BF0090005082
S31508002F5000000350005A6202002D3101430905D0D2
S31508002F60012B0CD0022B084B18BF002300F01F00C2
S31508002F7039B103F58053012282401A607047034B2A
S31508002F80F4E703F50053F6E76880005064800050C4
S31508002F901FB50021B0F5807F0446CDE9001100F089
S31508002FA0D2803AD85E2833D85E2833D8DFE800F0D6
S31508002FB045323232323232323232323232323232D0
S31508002FC032323232323232323232323232323232D3
S31508002FD045AC45ACBCBCBCBCBCACC64E6BDC4EAC54
S31508002FE0ACAC3232323232323232ACACAC7EE6ACD7
S31508002FF032323232323232323232323232BC4545F3
S3150800300045E14E4EEB8D63C132323232329E450077
S31508003010802870D0009804B010BDB0F5D06F00F0CD
S31508003020A38035D8B0F5607F79D01AD8B0F5007F7F
S3150800303065D005D8B0F5C07FECD12BF0E5FA5CE099
S31508003040B0F5207F60D0B0F5407FE3D12BF0DCFAF5
S3150800305002464FF42070FFF72BFFB2FBF0F252083E
S315080030605BE0B0F5B06F69D00AD8B0F5806F5BD079
S31508003070B0F5A06FCED100216846FFF7A1FCC9E7DD
S31508003080B0F5C06FC6D100216846FFF747FDC1E716
S31508003090B0F5106F6DD00ED8B0F5086F78D0B9D8E6
S315080030A0B0F5E06F6AD0B0F5F06FB3D1002168468D
S315080030B0FFF7BCFDAEE7B0F5406F3AD013D8B0F5D0
S315080030C0206F60D0B0F5286FA4D10021324B039150
S315080030D0D3F8703203F00303012B02D103A8FFF7DC
S315080030E01DFD039B39E0B0F5486F93D10021684672
S315080030F0FFF76AFD8EE72BF067FA00908AE72BF058
S3150800310063FA0246204604E02BF07EFA02464FF4A4
S315080031102070FFF7CDFEB2FBF0F200927AE701A825
S31508003120FFF780FC019AEDE700216846FFF7C2FC2D
S3150800313070E700216846FFF711FC6BE70021684637
S31508003140FFF712FE66E74FF0E02302911B695B0763
S3150800315005D52BF059FA0290029B00935AE703A96A
S3150800316002A8FFF7DBFCF7E700216846FFF748FEF1
S3150800317050E700216846FFF76FFE4BE700216846D7
S31508003180FFF71AFE46E700216846FFF7EBFC41E722
S315080031906846FFF76BFC3DE70080005008B58020C5
S315080031A0FFF7F6FE034B98429EBF4FF48032024B60
S315080031B01A6708BD005A620200A000501FB50346F0
S315080031C00020B3F5807F019000F0C58065D85D2B9F
S315080031D056D84C2B07D82D2B48D8232B2CD80198FA
S315080031E005B05DF804FB4D3B102BF8D801A252F848
S315080031F023F000BF4D330008DF310008DF31000837
S31508003200DF310008FB320008DF310008DF31000833
S31508003210A733000819330008BF3200089D33000899
S31508003220DF310008DF310008DF310008DF31000830
S31508003230DF310008B1330008243B092BCFD801A29F
S3150800324052F823F04D3300084D3300084D3300087B
S315080032504D3300084D330008DF31000843330008BA
S31508003260DF310008DB320008833300083D2B00F00D
S3150800327083803E2BB3D1002001A9FFF79DFDAEE761
S31508003280802BACD1504B1B6F03F00703013B032B7C
S31508003290A5D8DFE803F0544D5052B3F5F06F6BD064
S315080032A020D8B3F5B06F4CD00ED8B3F5607F71D087
S315080032B095D3B3F5806F49D0B3F5A06F8FD10020B1
S315080032C001A9FFF77DFB8AE7B3F5D06F59D0B3F5AF
S315080032D0E06FD0D0B3F5C06F81D1002001A9FFF708
S315080032E01DFC7CE7B3F5206F5DD00BD8B3F5086FEE
S315080032F04CD0B3F5106F7FF472AF002001A9FFF729
S31508003300ABFD6CE7B3F5406F48D0B3F5486F4FD0C7
S31508003310B3F5286F7FF463AF2B4BD3F8703203F005
S315080033200303012B49D0022B0CBF1523002300E011
S315080033300523019353E70323FBE70823F9E7022351
S31508003340F7E7002001A9FFF70FFD48E7002001A9CC
S31508003350FFF7B0FB43E74FF0E02302901B695B07DA
S3150800336005D52BF051F90D230393039BE1E703A938
S3150800337002A8FFF7D3FBF8E7002001A9FFF756FCE0
S315080033802DE7002001A9FFF73BFD28E701A9FFF774
S315080033906DFB24E701A9FFF745FB20E7002001A9FB
S315080033A0FFF7DCFA1BE7002001A9FFF7DBFB16E7AE
S315080033B0002001A9FFF708FC11E7002103A8FFF781
S315080033C0ADFB1123B5E700BF008000504FF48032F3
S315080033D0074B0849586E03F580535A664B6A23F023
S315080033E001034B62C3035CBF034B5A66704700BFB9
S315080033F00080005000C0075000A0005008B5FFF735
S31508003400DDFE092811D00A38012802D94FF6FF70C7
S3150800341008BD4FF48002064B5A6603F5D8335B6A3B
S31508003420DB07F3D54FF4FA70F2E7024B1888EFE79B
S31508003430009000504246002008B5FFF7BFFE03285B
S315080034400ABF024B4FF6FF70188808BD4046002099
S3150800345038B504468020FFF7B1FE032800F08380C4
S315080034604FF48012524B4FF0A0615A6645F60E0291
S31508003470504BC3F88020504A91624FF4803102F5D0
S31508003480805291629A6DD203FCD4996D11F08041F5
S31508003490FBD1D4E90002120542EA0062E07B02434E
S315080034A0207B42EA0042607B42EA0032A07B42EA85
S315080034B080121A619869D4E90452120642EA8562B2
S315080034C000F000400243A07EE57E0243207E42EAE9
S315080034D00042607E42EA00229A611A6AE06922F096
S315080034E00F0242EA8502354D00283DD11A6294F84A
S315080034F02420996A94F82000D200294042EA401212
S315080035000A4394F8211042EA011242F480329A6280
S315080035102B49284A936D31EA0303FBD14FF080719A
S31508003520254881621369A56823F4700343EA0553A5
S3150800353013614FF00043836194F822300BB9214B95
S31508003540996294F823303BB94FF480321D4B9A6246
S31508003550184A936D5B00FCD494F825301BB1154BC3
S31508003560194AC3F8802038BD024342F008020228EF
S315080035701A6208D119614FF40852996113484FF439
S315080035807F411DF00DFE0B4994F822308A6A94F8A3
S3150800359020001B062A4043EA4013134394F82420CC
S315080035A043EAC20394F8232043EA02438B62D3E733
S315080035B0009000500040005A0050005AC7FFFEFE17
S315080035C0030001000060005AF1A7FFFF3440005ACB
S315080035D0014B93F9000070470B470020F0B5D0E97E
S315080035E001434FF400061A4A4178057856664FF4A7
S315080035F0D156022702F5B8325662164E4F29776021
S315080036004FF0010728BF4F2106F5805677601669E7
S31508003610F603FCD441EA052151611B01417B43EACB
S3150800362004230B43017B43EA41039360C37B817BFD
S315080036301B0143EA4113417C0B43017C43EA4103E6
S315080036405360837C13B16FF4D1535362F0BD00BF4E
S315080036500090005000100250014B1880704700BFC0
S3150800366042460020014B1880704700BF40460020A4
S315080036704FF4800208B5184B5A660223174A53605E
S31508003680936813F48033FBD1012822D12AF0D6FFA0
S31508003690134B984215D003F5122303F5F8639842A5
S315080036A013D0104B00EB8002400AB3FBF0F3520A2A
S315080036B00A49CA620B6301234B620022074B5A6010
S315080036C008BD45F67A13084AF2E745F61A03074A8B
S315080036D0EEE75362F1E700BF009000500040025049
S315080036E000F0490264666666D8B80500BBCF0500D7
S315080036F0B0F5207F10B50C465DD008D8B0F5007F30
S315080037004ED003D8C0B1B0F5C07F15D010BDB0F506
S31508003710607FFBD12C4B4C1ED3F8FC202B4912F0B2
S31508003720807F4FEA041427D1D1F8803023F0300384
S315080037302343C1F88030E9E71DF041FD1DF04DFD3A
S315080037404FF48031224B214A1967136F013C23F449
S31508003750704343EA043313672AF056FF0446FFF71B
S31508003760F1F8C0F1020120461DF031FD00F04AF8DB
S31508003770BDE81040FFF712BDD3F8FC2022F0807296
S31508003780C3F8FC20D1F8802022F030022243C1F889
S315080037908020D3F8FC2042F08072C3F8FC20B5E7FD
S315080037A00A4A4C1ED2F8903023F0F85343EA0463D1
S315080037B0C2F89030AAE7054A4C1E136F23F48063BB
S315080037C043EA84231367A1E700ED00E00080005078
S315080037D00090005008B50121022000F095F94FF439
S315080037E02070FFF765FB054B18701DF0E8FC1DF00F
S315080037F0F4FC4FF48032024B1A6708BDF5400020EE
S315080038000090005008B54FF4C070FFF7C1FBBDE843
S3150800381008400449884294BF012102214FF42070D0
S31508003820FFF766BF80F0FA0238B504462AF0ECFEC8
S315080038300546FFF787F8C0F1020128461DF0C7FCC8
S315080038400121002000F0A0F92CB1FFF7DBFFBDE84D
S315080038503840FFF7A3BC034B4FF420701978FFF7E5
S3150800386047FFF4E7F54000204FF4C02270B505463F
S31508003870FFF700FA314B04465A6603F598335A683F
S31508003880012A04D12E494A605A689207FCD480203E
S31508003890FFF794FC052807D11DF091FC1DF09DFC4F
S315080038A04FF48032254B1A67264B24F040749D420C
S315080038B030D0254B9D4230D02AF080FE8542064600
S315080038C003D90121284600F05FF9204BDA6812F087
S315080038D0060FFBD199689C609A68624012F4F81F3B
S315080038E01ED12846FDF7D0F88020FFF767FC05288B
S315080038F00DD12AF089FE0446FFF724F8C0F102012B
S3150800390020461DF064FCFFF77DFFFFF747FCAE423B
S315080039100CD270BD44F00074CEE744F08074CBE757
S3150800392080209960FFF74AFC052805D0BDE870405D
S315080039300121002000F028B93546DAE7009000504A
S3150800394000E0015040420F0080841E000000015034
S315080039503D4B3E4A984263D021D83D4B98426BD0A6
S3150800396011D83C4B4FF40021984261D008D83A4B05
S3150800397098423AD0394B984230D0394B984240D089
S315080039800023516639E0374B984243D0364B4FF403
S3150800399000219842F4D1354BD3F8BC3021E0344BA2
S315080039A0984241D011D8A3F53703A3F5D8539842C6
S315080039B046D003F5B70303F5586398424FF4002140
S315080039C0DED12A4BD3F8C8300BE02A4B4FF400213E
S315080039D09842D5D1254BD3F8D03002E0234BD3F803
S315080039E0A030516623F0407307E0204BD3F8A0308F
S315080039F0516623F0407343F080734FF0B4429360EE
S31508003A0070471A4BD3F8A030516623F0407343F041
S31508003A100073F2E7154BD3F8B8304FF40021E0E70E
S31508003A20124BD3F8C030F8E7104BD3F8CC30F4E794
S31508003A300E4BD3F8A430D4E70C4BD3F8B030ECE7F0
S31508003A400A4BD3F8C430E8E7C0EA210100900050D9
S31508003A5080969800404B4C0080841E0000093D006B
S31508003A6040420F00405DC6000024F4000080E00FCD
S31508003A700048E801005A6202024A536B0342FCD12D
S31508003A80704700BF00400950044A4178536F23F439
S31508003A90407343EA01235367704700BF0040005054
S31508003AA0104A10B51369044643F0040313612CF059
S31508003AB08FFC1DF097FB0C4B5B6E5B0142BF0B4BFB
S31508003AC00B4AC3F82024BFF34F8FBFF36F8F30BF65
S31508003AD01DF089FB02F080FB1CB9BDE810402AF0F6
S31508003AE093BD10BD00ED00E00080005000E00350DB
S31508003AF00000FF0F034A0179D36E23F030030B430E
S31508003B00D366704700400050F8B504461C4BD3F8FE
S31508003B108420D106FBD4D3F88430C3F381139C42A6
S31508003B202CD02AF051FD012C064602D121461DF063
S31508003B304EFB2EF0ECFA4FF00072124B07465A660F
S31508003B4020461DF053FB4FF480630D4D621E9340D3
S31508003B502B676B6E9A0103D4D5F884309B060AD579
S31508003B6038462EF0CFFA022C08D13046BDE8F84088
S31508003B7000211DF02CBBD5F88430EAE7F8BD00BF5C
S31508003B80004000500060005010B50C4608B92AF0F5
S31508003B901BFD074B21461B783BB1064B984204D8C0
S31508003BA00120BDE81040FFF7AFBF0220F9E700BFCC
S31508003BB0F6400020005A62020278034B01210020D9
S31508003BC01A70FFF7E1BF00BFF64000204FF0004231
S31508003BD038B5244B244C5A664AF6CD33656C0146F3
S31508003BE005F00105236428BB0120FFF745FF63683C
S31508003BF0DB0715D51D4B586008461D4B226BD207AF
S31508003C000CD4984208D1072415B1174B194A1A64DF
S31508003C1029F06DFE204638BD0130EFE79842F2D014
S31508003C200024F1E70132236B13F0080305D08A421A
S31508003C30F8D1E8E700220E49F5E78A42E3D02021C9
S31508003C400A4A91620121A2F5805251600649084A42
S31508003C50886A800603D49342D5D00133F8E79342A5
S31508003C60DDE700BF00900050004009500060095091
S31508003C7040420F003254FFFF4FF0004238B5164B52
S31508003C8001465A664AF6CD33144C154A656C2364C8
S31508003C9043780B205B0043F00103D363FFF7ECFE88
S31508003CA063688A7823F4F87343EA02136360CA7870
S31508003CB04B7943EA0223A3600A798B7943EA022304
S31508003CC023610878FFF782FFEB0744BF054B23649F
S31508003CD029F00DFE012038BD009000500040095023
S31508003CE0004000503254FFFF4FF00042124B70B5AF
S31508003CF05D6E03F580535A664AF6CD3304460F497E
S31508003D0080204E6C0B64FFF7B7FE0B6A23F00F0397
S31508003D100F2C94BF234343F00F030B62F30744BFF2
S31508003D20074B0B64002DA2BF4FF00042054B5A66A5
S31508003D3029F0DDFD70BD00BF00800050004009502D
S31508003D403254FFFF00A000504FF00042104B70B5F0
S31508003D505D6E03F580535A664AF6CD3304460D491F
S31508003D6080204E6C0B64FFF787FE0B6A23F4F8532A
S31508003D7043EA04230B62F30744BF074B0B64002D89
S31508003D80A2BF4FF00042054B5A6629F0B0FD70BD40
S31508003D9000800050004009503254FFFF00A0005038
S31508003DA010B51DF028FA042300F5805100F50052DD
S31508003DB00B6113610B6113610B6113610B61136175
S31508003DC0202341F2020103610023C360836041613D
S31508003DD04FF4A0218361836541620549C36103628B
S31508003DE08362C36243630365D164036310BD00BF86
S31508003DF0FF3F0D0370B505461446084641B9354BD5
S31508003E009D4218D0344B9D4208BF5720FFF7C0F893
S31508003E10AB6813F0010F6B6830D0B0FBF4F4D80729
S31508003E2004F1FF344FEA046407D42B6923F07F4377
S31508003E3023432B6170BD5620E8E7282128461DF04C
S31508003E40D6F9AB6C990715D1AB6CDA0714D4AB6C01
S31508003E5013F0020F14BF0626002628461DF0CBF9DC
S31508003E602B69314623F07F4323432B61BDE870401D
S31508003E701DF0DBB90526F0E70926EEE7AB6DDB0793
S31508003E80AB6848BF640003F0E003402B1BD004D89E
S31508003E90DBB1202BCED1082304E0602B17D0802B72
S31508003EA0C8D1012363434101B1FBF3F20B4B203A1E
S31508003EB0284603EAC20201211DF099F92A63BDE8E2
S31508003EC070401DF094B90623ECE71023EAE70423B3
S31508003ED0E8E700BF0000015B00000A50F8FF7F001A
S31508003EE02DE9F0419846436804460E4617461BB12D
S31508003EF040F6FF711DF07BF92046FFF751FFF18967
S31508003F00737B62690B43318A22F44C5222F00F020A
S31508003F100B4313436361A26896F818C0337B22F0FB
S31508003F20804222F0E2024CEA030313437269134308
S31508003F30B268A3601AB9A36843F00043A360F069A6
S31508003F4004F58053002878D0857A017A6D04D4F870
S31508003F5008E045EA81556E490EEA01010D4381885C
S31508003F6001F4C0410D43417845EA8105417B45EAA4
S31508003F70C105817B45EA0115817845EA8125A56059
S31508003F80D4F80CE0D0E904152943624D0EEA05057C
S31508003F902943857941EA8521C57941EA4521E160C8
S31508003FA001785D4D012914D1E16841F00401E16011
S31508003FB0AC4200F0928059498C420CBF01214FF067
S31508003FC0FF31490101F1A04142F2944501F57031F2
S31508003FD014E003297BD1E16841F00401E160AC42B9
S31508003FE079D04E498C420CBF01214FF0FF3141F286
S31508003FF09445490101F1A04101F570314FF0020ED7
S3150800400041F805E0417A996219B1E16841F4006125
S31508004010E160C17A59B1E16841F40041E1603E4985
S315080040208C425CD1017B3E4D01F00F016967616AE4
S31508004030C07B21F00301014361622FB197F820107C
S31508004040002956D001211962B8F1000F2DD0BCF114
S31508004050000F02D04FF4004199652F49B8F8225055
S315080040608C4298F8211051D02C48844213D1012053
S31508004070112934BF4FF0010C4FF0020C294FB5F54A
S31508004080006F07F800C094BF4FF0010C4FF0020C08
S31508004090254F07F800C0A06D294320F4F95020F0F9
S315080040A01E000143A16501219965012159601AB1D4
S315080040B020467168FFF79EFE204631781DF0B5F858
S315080040C0A36CDB4313F4405FFAD1BDE8F0810239F3
S315080040D0012984D96CE7002189E7002171E70F4996
S315080040E08C4201BF017B0E4D01F00F01C5F880100F
S315080040F09DE7E06997F8221097F8215020F009000B
S315080041002943014341F00101D9619DE70020AFE74A
S31508004110E39BBDFFFFF9F0870000015B00000A5032
S3150800412000900350F9400020F74000202DE9F041A7
S3150800413005460F461E4690464AB101233022194CC1
S315080041408B4002FB004436B304F5825423600F21EA
S31508004150072F05EB450388BFA7F108044FEA0313A9
S31508004160114895BFBC00A40004330C3308FA04F2C6
S31508004170A14018441DF086F8B8F1000F09D10123B3
S315080041803021084ABB4001FB05223EB102F58252A6
S315080041901360BDE8F08104F50154D7E702F5015232
S315080041A0F6E700BF00C0035030C0035010B5152015
S315080041B000F0B6FF0024FF22064B21465C6520204E
S315080041C09A625C60FEF7CAFE2146BDE810402120CF
S315080041D0FEF7C4BE00000450044A054B002908BF78
S315080041E01346012282401A60704700BF40100450EF
S315080041F04020045010B5012104462020FEF7AEFEEB
S3150800420001212120FEF7AAFE0122114B15205A6032
S31508004210227812069A606178A27842EA01429A6187
S31508004220FF229A6200229A631A644FF000425A6586
S315080042304FF0FF3203F500531A6500F09FFF152073
S31508004240E1781DF0D3FCBDE81040152000F07ABFD8
S3150800425000000450F8B50125C3B2D1F800C08F7A22
S315080042600E7B0C469D40CB7A1C491B050D658100CB
S3150800427001F1A04101F58821C1F804C04FF0300CC6
S315080042800CFB00F0617B00F1A04043EA074300F510
S31508004290802043EA465322F003020166C36502679B
S315080042A02DF03EFF0E4B227A5D6502B11D64627ADF
S315080042B002B19D632279A37943EA0243074A9361CF
S315080042C06179E37943EA014305498B61054B5563F7
S315080042D09D64BDE8F8402DF01EBF00BF00200450C5
S315080042E0001004500000045010B50124C0B28440E8
S315080042F02DF016FF044B5A6D22EA04025A659C6299
S31508004300BDE810402DF007BF0000045010B5012489
S31508004310C0B284402DF004FF074BDA6A224208D166
S315080043205B6B9C430CBF012400242DF0F4FE204651
S3150800433010BD0024F9E700BF0000045070B505461B
S315080043402DF0EEFE3022084B5E6B02FB05335C6EE9
S315080043502DF0E1FE0123EDB2AB4033420ABFC4F3B0
S315080043600A100020013070BD000004504FF480325E
S31508004370054B9A6641F6713203F51C33DA6301225E
S3150800438003F50053DA6070470090005041F6713229
S315080043900121064BDA6303F50052D1600022DA6385
S315080043A04FF48032A3F518339A667047000003501D
S315080043B0013831289ABF024B185C0020704700BFAD
S315080043C0DB29030838B5C2F30625044602F00702BE
S315080043D041B942EA052242F440220634074B43F823
S315080043E0242038BD114628461CF05BFF02462846A5
S315080043F0FFF7DEFF163442EA0022EFE7008003509B
S315080044004FF48032064B5A6603F5E6239B69C3F3DD
S315080044108512827003F03F021B0B427003707047CF
S3150800442000900050014B986CD96C70470080E00FE3
S315080044300120034B9B680A3303F01F03984070471B
S315080044400080E00F0122437801789A4030235943CF
S31508004450014B5A50704700BF40E00350034BD3F856
S315080044602424D3F820041040704700BF00C003502E
S315080044702DE9F8431F4B0546D3F810334B1E0E2B78
S315080044800E461746047890F8018026D951B34FF0A6
S31508004490000928461FB32BF0E3FB0F21B8F1070FDD
S315080044A004EB440488BFA8F108084FEA041412482C
S315080044B095BF4FEA88084FEA880804340C3409FA8D
S315080044C008F201FA08F120441CF008FF86B92846CC
S315080044D057B1BDE8F8432BF0C3BB8946D9E7FFF7C8
S315080044E0B1FFDAE78946D8E7BDE8F843FFF7AABF80
S315080044F0BDE8F88300C0035030C00350054B9A68E6
S315080045009107FCD45A689207F9D4DA69002AF6D1D9
S31508004510704700BF00800A5010B5034C63682BF043
S31508004520ABFB0223236110BD00800A5008B5FFF7D4
S31508004530E5FF0122024B03F580514A601A6108BD66
S3150800454000800A50044B10B55C68012C03D1FFF7B4
S31508004550E3FF024B5C6010BD00800A5000A00A50C1
S3150800456038B5074DFFF7CAFF6B680446012B03D120
S31508004570FFF7E8FFFFF7C2FF2378EB6038BD00BFFF
S3150800458000800A5010B52BF081FBB8B94A680B7841
S3150800459012B1127843EAC2034A7843EA42038A68A8
S315080045A012B1127843EA8213CA7843EA82030A6987
S315080045B012B1127843EA4223014A936410BD00BF40
S315080045C000800A504FF48032084B5A6603F5E623FA
S315080045D09B691A0B027003F03F0242704FF6FF7296
S315080045E0C3F3851342808380704700BF0090005054
S315080045F0014B986CD96C70470080E00F10B54FF4EA
S315080046002F720021044620F07AF88023C4F88C30F3
S31508004610054B04F19C00C4F88430012384F88830E3
S31508004620BDE810401BF071BFE646030810B5D0F888
S31508004630A0400A468CB900F049FA044610B900248D
S31508004640204610BD2D2896BF064B074953F8201063
S31508004650064A07481DF028FAF2E7D0F8A4101046D3
S31508004660A047ECE7CC2A03080D2A0308E44603080A
S315080046701B2A030870B590F88050044615B100252A
S31508004680284670BD1CF03DFE0028F8D1012384F8A9
S31508004690803094F8883033B1D4F884101B4884F8F5
S315080046A088501DF001FA1DF0F0F9431C1FD010F0D8
S315080046B0FF061AD020461CF021FE314620461DF082
S315080046C01DF90028EFD020461CF01DFE94F888300E
S315080046D03BB1D4F884100D481DF0E6F9002384F8A0
S315080046E08830002384F88030CAE70125DBE7D4F850
S315080046F08C30D4F89420013B9A4204DB044A0549DD
S3150800470005481DF0D1F90125EBE700BF1D2A03086E
S31508004710E4460308202A03081B2A030870B50C463A
S3150800472005468AB0FFF76AFF6368A168C5F8B03224
S3150800473028461CF07AFF2CF02EFC4FF47A76236A72
S315080047405843B0FBF6F0C5F8B4022CF024FC636AB3
S31508004750294658432368B0FBF6F00193E369C5F888
S31508004760B8020793636901AA0593A36908480693E3
S3150800477023690393602304930023029308932CF080
S315080047800DFCE06028461CF0BAFD0AB070BD00BFFB
S315080047902D130208F8B50B780446302B0D4616463D
S315080047A004D14B7803F0DF03582B11D0284F6A1E2B
S315080047B012F8011F002934D128460A2205F022FDE5
S315080047C0202C03460D4631D1B1FA81F040091AE092
S315080047D04A1C1F4912F8013F8BB928461FF0A7FF4C
S315080047E01C4B02382340032B12D10134A4108442F7
S315080047F00AD1A87837288CBF0020012003E0CB5CBB
S3150800480013F04400E6D1F8BDCCBF01200020FAE73A
S31508004810002CB8BF0334B0EBA40FD4BF012000208E
S31508004820F1E77B5C13F00400C2D1ECE726B108433C
S3150800483002D0013B61F100050122A240013A1A406B
S31508004840002D08BF9A420CBF01200020DBE700BFFD
S315080048507748030803000080F0B5037801467B2BF0
S3150800486017D10646022400220B4F16F8015F7D2D4C
S3150800487005D10B5D6BB9D24302F0010008E07B5D00
S3150800488013F0440002D001320134EEE7202DFBD0AC
S31508004890F0BD0020FCE700BF7748030838B504469A
S315080048A0054D216801B938BD237A13B928461DF08C
S315080048B0FBF80C34F5E700BF842B03082DE9F04F0D
S315080048C093B005468B460024009204931FF02FFFF1
S315080048D01C9F049B05901C6028463C600AAA09A9EF
S315080048E01DF004F9064658B90A981FF020FF344609
S315080048F0B146049B1860D5F89C300393039B1BB9FB
S31508004900204613B0BDE8F08F039B9B680193002BEC
S3150800491069D02E4416F8013B202B12D000260C2312
S315080049207343019A02EB030AD3580293002B55D01E
S31508004930DDF82480C84551DB9AF808302BB1721C83
S3150800494035E03B6801333B60E4E73B68D5F89420E3
S315080049500299D21A049B1A6012AB03EB890353F827
S31508004960203C184606931FF08EFE07900028E6D1D5
S3150800497002981FF0DCFEDAF8041003460879D7F827
S3150800498000A0FE28079A16D108F1FF38C8452ED090
S315080049900B680698029201931FF0C9FE0AF10103FB
S315080049A0029A0344E95C21B13B6009F10109164604
S315080049B0B5E70133F6E7D5F89420A2EB0A029A4246
S315080049C0BDDC584606931FF0B2FE069B03447B2BBC
S315080049D01DD958461E4A00991BF0D9FD2B46059A43
S315080049E02A449A422AD1039B1B68039386E7D5F883
S315080049F09420A2EB0A029A42E3DDD1F8008058F827
S31508004A000C2B82B9059B3B60049B1A60E6E7584667
S31508004A10029A00991BF0BBFD58460E4A00990134CC
S31508004A201BF0B5FD8BE7584600991BF0B0FD5846BC
S31508004A30084A00991BF0ABFD0134E0E713F8011BA7
S31508004A400029CED14FF0200103F8011CC9E700BFA9
S31508004A508B2B03087B4903082DE9F047002486B011
S31508004A601C60DDE90EA8064689468AF800401168EA
S31508004A70154888F8004017461D468DF81740FCF77C
S31508004A805DF818B901242B6801332B600020D6F88D
S31508004A909C6036B914B1012388F8003006B0BDE829
S31508004AA0F087B06868B14B460021CDE902A8CDE988
S31508004AB000750DF117021CF06EFD9DF81730002BDE
S31508004AC0E8D13668E5E700BF902B03082DE9F041E9
S31508004AD0A2B005460AAA084603A91DF007F8044627
S31508004AE0C0B90DF10A0301930DF10B038DF80A0005
S31508004AF000930AAA284604AB03A9FFF7ADFF9DF861
S31508004B000A20C2B19DF80B2058B13AB101681C4879
S31508004B101CF0CAFF204622B0BDE8F081FFF7BEFEB2
S31508004B20F8E7D5F89C50002DF4D0A86808B1FFF72F
S31508004B30B5FE2D68F7E700B3466812AB06F1040820
S31508004B401AAF01934046049B039900970AAA1CF0E2
S31508004B50A6FC04460028DDD1039B05A8CDE9063747
S31508004B60049B0595CDE908381CF05DFD05A833685A
S31508004B70984705A81CF058FDCCE72D24CAE700BFC6
S31508004B80842B030870B504460D462DF0C9FA0C2C83
S31508004B90064616D80C2C18D8DFE804F01B1B171B82
S31508004BA01B2A171B2E17311734000123194AA34055
S31508004BB013421DD1062C2AD0DB0706D54FF4F06028
S31508004BC022E00D3CE4B2132CEFD9002321242B80DC
S31508004BD009E08020FEF730FC4FF6FF7398420CBFC1
S31508004BE00E240024288030462DF095FA204670BD04
S31508004BF000230F242B80F6E74FF48060EAE74FF492
S31508004C004060E7E74FF4C060FEF7F8FBE4E74FF4CF
S31508004C10E060F9E71C450D0030B58BB06C46864D53
S31508004C2086482DF095FA0FCD0FC42B68844A236069
S31508004C30FF238DF80130D2F84C3113F4802340F06D
S31508004C40EE80D2F850218DF801309DF801306C467F
S31508004C50FF2B08BF252368467A4D8DF80130FEF7ED
S31508004C60BDFC3220FEF7F8FC0FCD0FC40FCD0FC4E4
S31508004C7095E8030084E80300714BD3F84C2112032E
S31508004C8000F1BC80D3F85041E4B28DF81940FEF724
S31508004C909FFC044484F308046B488DF81840FBF71E
S31508004CA0F9FE6846FEF7D4FB3220FEF7DBFC6748C0
S31508004CB0FEF7DAFD6648FEF74BFE664C66482DF0B1
S31508004CC047FA0020FEF7D4FCFEF784FD236F002088
S31508004CD023F0070343F003032367FEF7A5FD236FBD
S31508004CE05E4923F4744323675D4BD3F8FC2012F026
S31508004CF0807200F08980D3F8FC2022F08072C3F815
S31508004D00FC20D4F8802022F0030242F00102C4F805
S31508004D1080200022C1F88020D3F8FC2042F080725F
S31508004D20C3F8FC204B4CD4F8203123F0070343F09A
S31508004D300203C4F82031D4F8283123F0070343F0DE
S31508004D400203C4F82831D4F8803123F0030343F072
S31508004D500103C4F88031D4F8403123F0030343F04B
S31508004D600203C4F84031D4F8603123F0030343F05A
S31508004D700203C4F86031D4F8403223F0030343F049
S31508004D800203C4F84032D4F8003223F0070343F094
S31508004D900203C4F80032D4F8083223F0070343F0BC
S31508004DA00203C4F80832D4F8703223F0030343F040
S31508004DB00103C4F87032D4F8203223F0070343F015
S31508004DC00103C4F82032FEF701FB4FF0E022002071
S31508004DD0136943F004031361D4F8603223F0070320
S31508004DE043F00103C4F86032D4F8943223F0070381
S31508004DF043F00103C4F894320BB030BD194B1C883C
S31508004E00FF2C88BF642440E7D4F8803023F00303DE
S31508004E1043F00103C4F88030C1F8802082E74FF0E0
S31508004E207E6393F89C2093F99C30002BFFF60DAF18
S31508004E308DF8012009E700BF982B0308DC2B03082F
S31508004E400080E00FAC2B0308C017530200B4C4045B
S31508004E50C0EA210100800050E42B030800900050AE
S31508004E6000ED00E00001E00F07B5094B18689A88C5
S31508004E709B7900906846ADF804208DF80630FEF759
S31508004E80FBFE0C20FEF730FF002003B05DF804FBA4
S31508004E90D42B030870B501F0F7F90446E8B901F018
S31508004EA07DFA2BF04BFC4FF4167343430C4A03F57B
S31508004EB0742303F23F23B3FBF2F30A490A480B6053
S31508004EC00A230268094D0E68013B45F8046B0E6813
S31508004ED013F0FF033244F6D10260204670BD00BFCE
S31508004EE040420F002C280020FC2700200028002024
S31508004EF0012208B5034B1A702DF0DAF9024B186037
S31508004F0008BD00BFFB400020F827002010B52BF095
S31508004F1015FC04462BF0E5FF844207D92DF0D4F999
S31508004F2020B10122024B1860024B1A7010BD00BF57
S31508004F30F8270020FB400020F8B51F4C2378E3B182
S31508004F402DF0B6F91D4B1E4D1B68C01A28602B683C
S31508004F50A3B12B682B602BF0F1FB4FF4167250436C
S31508004F60184A00F5742000F23F20B0FBF2F02B68D7
S31508004F702B68834204D900232370F8BD0123E9E78F
S31508004F801148124E0378296856F82320104F511AF3
S31508004F903A68521A29683A6046F823100A210932F3
S31508004FA0B2FBF1F20B4D0133DBB22A60B3FBF1F22F
S31508004FB001FB12330370DEE7FB400020F8270020D0
S31508004FC02828002040420F00FC400020002800202E
S31508004FD0FC2700202C280020014B1868704700BFCA
S31508004FE02C280020F8B503212C201CF0FFFD0426F0
S31508004FF04FF480120D4C0E4B0E4F04F500555A66B1
S315080050002C206F676E672F672E6700F0B7F82C2085
S3150800501000F098F84FF0007204F580535F675E67FA
S31508005020AA624FF480529A62F8BD00BF0040005A47
S3150800503000900050010000A0064B074A996D11F038
S31508005040050F01D0117811B10028F7D1704701205A
S31508005050704700BF0040005AFD400020164B10B5AF
S315080050601C6F14F0040111D0144A116708219162CB
S315080050709B6DDA0701D4FFF749FF01F01DF800F030
S31508005080FDFF01202BF0B6FB2DF020F9E30706D52E
S3150800509001220A4B1A67FFF74FFF00F0EFFF14F0E3
S315080050A000521CBF054B1A67002CBEBF4FF00042CA
S315080050B0024B1A6710BD00BF0040005A0060005A34
S315080050C00028ACBF00F16040064B4FEA0111C9B297
S315080050D0ABBF00F5614000F00F0080F800131954CB
S315080050E0704700BF14ED00E008B52DF019F80B4B1A
S315080050F01A7872B901221A702DF00DF86FF00402B1
S3150800510010460132052152B2FFF7DAFF4C2AF7D1D1
S3150800511008BDBDE808402CF0FEBF00BFFE400020D9
S3150800512000280CDB01220649430900F01F008240D3
S31508005130203341F82320BFF34F8FBFF36F8F70479B
S3150800514000E100E0002807DB01234109034A00F0DB
S315080051501F00834042F82130704700BF00E100E09D
S31508005160054B421153F8223000F01F0023FA00F0D5
S31508005170C04300F00100704700E100E0002808DBAA
S3150800518001224309034900F01F008240603341F8B9
S315080051902320704700E100E073B504462CF0C0FFF9
S315080051A005462BF04EFF60B10E4E3378FF2B8DF877
S315080051B0073006D10DF10700FBF7E2FB9DF8073033
S315080051C03370094B28461C602CF0A5FF2BF039FFDD
S315080051D028B1224600209DF807101BF082F900200E
S315080051E002B070BD0C4700203028002073B52CF0A3
S315080051F097FF0D4D0D4B2E781C682CF08CFF2BF06D
S3150800520020FF38B1FF2E05D00020297801AA1BF00F
S3150800521061F9019C2CB92CF083FF054B1C682CF016
S315080052207AFF204602B070BD0C47002030280020C7
S315080052303428002010B504462CF072FF024B1C607F
S315080052402CF069FF002010BD3428002038B504462C
S31508005250D0F870311D68AB6C5906FCD5002394F85C
S3150800526079111A4694F87801FEF760FF002394F83E
S315080052707B111A4694F87A01FEF758FF94F88031A4
S31508005280DA0707D5002394F87D111A4694F87C01AD
S31508005290FEF74CFF94F880319B0707D5002394F856
S315080052A07F111A4694F87E01FEF740FF012205F5A4
S315080052B000531A65042200211A652846094D1BF079
S315080052C0B4FFD4F874012CF046FF284604F5C271E1
S315080052D01BF031F92B6813B9034800F04BFE002088
S315080052E038BD00BF382800203C280020012910B509
S315080052F002D9022914D010BD134B1C68A4F5C27438
S3150800530014F5C27FF7D0D4F874012CF021FFD4F835
S315080053107031052118681BF088FFD4F88441EDE741
S31508005320094B1C68A4F5C27414F5C27FE3D094F83F
S31508005330973033B994F895301BB9D4F874012CF02A
S315080053400AFFD4F88441EDE7382800202DE9F04714
S315080053501D4613688EB01F6891F83130814688461D
S31508005360144606AE002B00F0F180DFF820C2BCE838
S315080053700F000FC69CE80F0086E80F0018220021D0
S3150800538068461FF0BCF9A3680893237B012B00F03D
S31508005390E080022B0CBF4FF440730023ADF8263093
S315080053A0637B4FF0010A032B8CBF4FF480536C4A82
S315080053B0CDF834D098BF32F813308DF806A0ADF882
S315080053C02830A37B29465A1E022A88BF0023654A2D
S315080053D08DF80030D8F8383048461A60624A5A6064
S315080053E0624A9A60624ADA60424600F039FB06462B
S315080053F0002840F0A78023695E48C5F87431237EEB
S3150800540085F87B31E37D85F87A31A37D85F8793196
S31508005410637D85F87831A37E85F87D31637E85F8CE
S315080054207C31237F85F87F31E37E85F87E312368DA
S31508005430C5F870312CF08CFE53460422A17D607DA0
S31508005440FEF774FE5346217E0222E07DFEF76EFECD
S3150800545085F8806120692CF07BFE98F83130384653
S3150800546006A9002B78D01BF007FF95F8803143F08A
S31508005470040385F880311421227D3F4B03EB42104B
S31508005480C0F8941494F816C0617D253241EA0C419F
S31508005490C0F8AC14207EE17D03EB421341EA0041DB
S315080054A05960A37B03F0FD03012B0BD195F88031DE
S315080054B0022243F0010385F88031A17E0023607E35
S315080054C0FEF734FEA37B023B012B0BD895F88031FF
S315080054D0042243F0020385F88031217F0023E07E11
S315080054E0FEF724FE95F88031DB0717D5A17E627E8C
S315080054F0237D42EA014241F29C415B0103F1A0434C
